{
  "contractName": "HashCoin",
  "abi": [
    {
      "constant": true,
      "inputs": [],
      "name": "minter",
      "outputs": [
        {
          "name": "",
          "type": "address"
        }
      ],
      "payable": false,
      "stateMutability": "view",
      "type": "function"
    },
    {
      "constant": true,
      "inputs": [],
      "name": "difficulty",
      "outputs": [
        {
          "name": "",
          "type": "uint256"
        }
      ],
      "payable": false,
      "stateMutability": "view",
      "type": "function"
    },
    {
      "constant": true,
      "inputs": [
        {
          "name": "",
          "type": "address"
        }
      ],
      "name": "balances",
      "outputs": [
        {
          "name": "",
          "type": "uint256"
        }
      ],
      "payable": false,
      "stateMutability": "view",
      "type": "function"
    },
    {
      "constant": true,
      "inputs": [],
      "name": "currentChallenge",
      "outputs": [
        {
          "name": "",
          "type": "bytes32"
        }
      ],
      "payable": false,
      "stateMutability": "view",
      "type": "function"
    },
    {
      "constant": true,
      "inputs": [],
      "name": "timeOfLastProof",
      "outputs": [
        {
          "name": "",
          "type": "uint256"
        }
      ],
      "payable": false,
      "stateMutability": "view",
      "type": "function"
    },
    {
      "inputs": [],
      "payable": false,
      "stateMutability": "nonpayable",
      "type": "constructor"
    },
    {
      "anonymous": false,
      "inputs": [
        {
          "indexed": false,
          "name": "from",
          "type": "address"
        },
        {
          "indexed": false,
          "name": "to",
          "type": "address"
        },
        {
          "indexed": false,
          "name": "amount",
          "type": "uint256"
        }
      ],
      "name": "Sent",
      "type": "event"
    },
    {
      "constant": false,
      "inputs": [
        {
          "name": "receiver",
          "type": "address"
        },
        {
          "name": "amount",
          "type": "uint256"
        }
      ],
      "name": "mint",
      "outputs": [],
      "payable": false,
      "stateMutability": "nonpayable",
      "type": "function"
    },
    {
      "constant": false,
      "inputs": [
        {
          "name": "receiver",
          "type": "address"
        },
        {
          "name": "amount",
          "type": "uint256"
        }
      ],
      "name": "send",
      "outputs": [],
      "payable": false,
      "stateMutability": "nonpayable",
      "type": "function"
    },
    {
      "constant": false,
      "inputs": [
        {
          "name": "nonce",
          "type": "uint256"
        }
      ],
      "name": "proofOfWork",
      "outputs": [],
      "payable": false,
      "stateMutability": "nonpayable",
      "type": "function"
    }
  ],
  "bytecode": "0x608060405234801561001057600080fd5b50336000806101000a81548173ffffffffffffffffffffffffffffffffffffffff021916908373ffffffffffffffffffffffffffffffffffffffff1602179055506d04ee2d6d415b85acef8100000000600481905550426003819055506106af8061007c6000396000f30060806040526004361061008e576000357c0100000000000000000000000000000000000000000000000000000000900463ffffffff168063075461721461009357806319cae462146100ea57806327e235e31461011557806340c10f191461016c57806351bdd585146101b95780635c10fe08146101ec57806381c8149d14610219578063d0679d3414610244575b600080fd5b34801561009f57600080fd5b506100a8610291565b604051808273ffffffffffffffffffffffffffffffffffffffff1673ffffffffffffffffffffffffffffffffffffffff16815260200191505060405180910390f35b3480156100f657600080fd5b506100ff6102b6565b6040518082815260200191505060405180910390f35b34801561012157600080fd5b50610156600480360381019080803573ffffffffffffffffffffffffffffffffffffffff1690602001909291905050506102bc565b6040518082815260200191505060405180910390f35b34801561017857600080fd5b506101b7600480360381019080803573ffffffffffffffffffffffffffffffffffffffff169060200190929190803590602001909291905050506102d4565b005b3480156101c557600080fd5b506101ce610381565b60405180826000191660001916815260200191505060405180910390f35b3480156101f857600080fd5b5061021760048036038101908080359060200190929190505050610387565b005b34801561022557600080fd5b5061022e6104f3565b6040518082815260200191505060405180910390f35b34801561025057600080fd5b5061028f600480360381019080803573ffffffffffffffffffffffffffffffffffffffff169060200190929190803590602001909291905050506104f9565b005b6000809054906101000a900473ffffffffffffffffffffffffffffffffffffffff1681565b60045481565b60016020528060005260406000206000915090505481565b6000809054906101000a900473ffffffffffffffffffffffffffffffffffffffff1673ffffffffffffffffffffffffffffffffffffffff163373ffffffffffffffffffffffffffffffffffffffff1614151561032f5761037d565b80600160008473ffffffffffffffffffffffffffffffffffffffff1673ffffffffffffffffffffffffffffffffffffffff168152602001908152602001600020600082825401925050819055505b5050565b60025481565b60008082600254604051808381526020018260001916600019168152602001925050506040518091039020915060045478010000000000000000000000000000000000000000000000000277ffffffffffffffffffffffffffffffffffffffffffffffff19168277ffffffffffffffffffffffffffffffffffffffffffffffff19161015151561041657600080fd5b600354420390506005811015151561042d57600080fd5b603c8181151561043957fe5b04600160003373ffffffffffffffffffffffffffffffffffffffff1673ffffffffffffffffffffffffffffffffffffffff168152602001908152602001600020600082825401925050819055506001816102586004540281151561049957fe5b04016004819055504260038190555082600254600143034060405180848152602001836000191660001916815260200182600019166000191681526020019350505050604051809103902060028160001916905550505050565b60035481565b80600160003373ffffffffffffffffffffffffffffffffffffffff1673ffffffffffffffffffffffffffffffffffffffff1681526020019081526020016000205410156105455761067f565b80600160003373ffffffffffffffffffffffffffffffffffffffff1673ffffffffffffffffffffffffffffffffffffffff1681526020019081526020016000206000828254039250508190555080600160008473ffffffffffffffffffffffffffffffffffffffff1673ffffffffffffffffffffffffffffffffffffffff168152602001908152602001600020600082825401925050819055507f3990db2d31862302a685e8086b5755072a6e2b5b780af1ee81ece35ee3cd3345338383604051808473ffffffffffffffffffffffffffffffffffffffff1673ffffffffffffffffffffffffffffffffffffffff1681526020018373ffffffffffffffffffffffffffffffffffffffff1673ffffffffffffffffffffffffffffffffffffffff168152602001828152602001935050505060405180910390a15b50505600a165627a7a723058202aa8887cf471e155907bc7493f6a3664b148dc0f9d7b758baa21852069bcd0920029",
  "source": "pragma solidity ^0.4.21;\n\ncontract HashCoin {\n    // The keyword \"public\" makes those variables\n    // readable from outside.\n    address public minter;\n    mapping (address => uint) public balances;\n    bytes32 public currentChallenge; // The coin starts with a challenge\n    uint public timeOfLastProof; // Variable to keep track of when rewards were given\n    uint public difficulty; \n\n\n    // Events allow light clients to react on\n    // changes efficiently.\n    event Sent(address from, address to, uint amount);\n\n    // This is the constructor whose code is\n    // run only when the contract is created.\n    constructor() public {\n        minter = msg.sender;\n        difficulty = 10**32;\n        timeOfLastProof = now;\n        //currentChallenge = 0;\n    }\n\n    function mint(address receiver, uint amount) public {\n        if (msg.sender != minter) return;\n        balances[receiver] += amount;\n    }\n\n    function send(address receiver, uint amount) public {\n        if (balances[msg.sender] < amount) return;\n        balances[msg.sender] -= amount;\n        balances[receiver] += amount;\n        emit Sent(msg.sender, receiver, amount);\n    }\n\n    function proofOfWork(uint nonce) public {\n    \tbytes8 n = bytes8(keccak256(nonce, currentChallenge)); // Generate a random hash based on input\n    \trequire(n >= bytes8(difficulty)); // Check if it's under the difficulty\n\n    \tuint timeSinceLastProof = (now - timeOfLastProof); // Calculate time since last reward was given\n    \trequire(timeSinceLastProof >=  5 seconds); // Rewards cannot be given too quickly\n    \tbalances[msg.sender] += timeSinceLastProof / 60 seconds;  // The reward to the winner grows by the minute\n\n    \tdifficulty = difficulty * 10 minutes / timeSinceLastProof + 1;  // Adjusts the difficulty\n\n    \ttimeOfLastProof = now; // Reset the counter\n    \tcurrentChallenge = keccak256(nonce, currentChallenge, blockhash(block.number - 1));  // Save a hash that will be used as the next proof\n    }\n\n\n}\n\n",
  "sourcePath": "/Users/Wei/Documents/workspace/ethereum-login-sample-master/solidity/contracts/HashCoin.sol",
  "compiler": {
    "name": "solc",
    "version": "0.4.23+commit.124ca40d.Emscripten.clang"
  },
  "schemaVersion": "2.0.0",
  "updatedAt": "2018-05-31T09:02:13.663Z"
}