{
  "contractName": "Login",
  "abi": [
    {
      "anonymous": false,
      "inputs": [
        {
          "indexed": false,
          "name": "sender",
          "type": "address"
        },
        {
          "indexed": false,
          "name": "challenge",
          "type": "string"
        }
      ],
      "name": "LoginAttempt",
      "type": "event"
    },
    {
      "constant": false,
      "inputs": [
        {
          "name": "challenge",
          "type": "string"
        }
      ],
      "name": "login",
      "outputs": [],
      "payable": false,
      "stateMutability": "nonpayable",
      "type": "function"
    }
  ],
  "bytecode": "0x608060405234801561001057600080fd5b506101ae806100206000396000f300608060405260043610610041576000357c0100000000000000000000000000000000000000000000000000000000900463ffffffff1680633a7d280c14610046575b600080fd5b34801561005257600080fd5b506100ad600480360381019080803590602001908201803590602001908080601f01602080910402602001604051908101604052809392919081815260200183838082843782019150505050505091929192905050506100af565b005b7fdeb017956c894eba079e6a630f5cfec256256dc05616ad89f1eb825abef459633382604051808373ffffffffffffffffffffffffffffffffffffffff1673ffffffffffffffffffffffffffffffffffffffff16815260200180602001828103825283818151815260200191508051906020019080838360005b83811015610144578082015181840152602081019050610129565b50505050905090810190601f1680156101715780820380516001836020036101000a031916815260200191505b50935050505060405180910390a1505600a165627a7a72305820828af7553d16232f3cfa51915056adcbab97d7fbd8c05ea08b7feaea7f4d9d2e0029",
  "source": "pragma solidity ^0.4.2;\n\ncontract Login {\n  \n    event LoginAttempt(address sender, string challenge);\n\n    function login(string challenge) {\n        LoginAttempt(msg.sender, challenge);\n    }\n\n}\n",
  "sourcePath": "/Users/Wei/Documents/workspace/ethereum-login-sample-master/solidity/contracts/Login.sol",
  "compiler": {
    "name": "solc",
    "version": "0.4.23+commit.124ca40d.Emscripten.clang"
  },
  "schemaVersion": "2.0.0",
  "updatedAt": "2018-05-08T22:03:31.966Z"
}